{
  "contractName": "Staking",
  "abi": [
    {
      "inputs": [
        {
          "internalType": "address",
          "name": "_usdt",
          "type": "address"
        }
      ],
      "stateMutability": "nonpayable",
      "type": "constructor"
    },
    {
      "anonymous": false,
      "inputs": [
        {
          "indexed": true,
          "internalType": "address",
          "name": "previousOwner",
          "type": "address"
        },
        {
          "indexed": true,
          "internalType": "address",
          "name": "newOwner",
          "type": "address"
        }
      ],
      "name": "OwnershipTransferred",
      "type": "event"
    },
    {
      "anonymous": false,
      "inputs": [
        {
          "indexed": false,
          "internalType": "address",
          "name": "inversor",
          "type": "address"
        },
        {
          "indexed": false,
          "internalType": "uint256",
          "name": "cantidadInvertida",
          "type": "uint256"
        }
      ],
      "name": "envioUSD",
      "type": "event"
    },
    {
      "anonymous": false,
      "inputs": [
        {
          "indexed": false,
          "internalType": "string",
          "name": "",
          "type": "string"
        }
      ],
      "name": "noCobras",
      "type": "event"
    },
    {
      "anonymous": false,
      "inputs": [
        {
          "indexed": false,
          "internalType": "uint256",
          "name": "",
          "type": "uint256"
        }
      ],
      "name": "retirarPlataInicial",
      "type": "event"
    },
    {
      "anonymous": false,
      "inputs": [
        {
          "indexed": false,
          "internalType": "uint256",
          "name": "",
          "type": "uint256"
        }
      ],
      "name": "retiro",
      "type": "event"
    },
    {
      "anonymous": false,
      "inputs": [
        {
          "indexed": false,
          "internalType": "address",
          "name": "",
          "type": "address"
        },
        {
          "indexed": false,
          "internalType": "uint256",
          "name": "",
          "type": "uint256"
        }
      ],
      "name": "retiroParcial",
      "type": "event"
    },
    {
      "anonymous": false,
      "inputs": [
        {
          "indexed": false,
          "internalType": "uint256",
          "name": "",
          "type": "uint256"
        },
        {
          "indexed": false,
          "internalType": "address",
          "name": "",
          "type": "address"
        }
      ],
      "name": "solcictudRetiro",
      "type": "event"
    },
    {
      "anonymous": false,
      "inputs": [
        {
          "indexed": false,
          "internalType": "uint256",
          "name": "cantidad",
          "type": "uint256"
        },
        {
          "indexed": false,
          "internalType": "address",
          "name": "inversor",
          "type": "address"
        }
      ],
      "name": "totalCobrarSemanal",
      "type": "event"
    },
    {
      "inputs": [],
      "name": "USDT",
      "outputs": [
        {
          "internalType": "contract IERC20",
          "name": "",
          "type": "address"
        }
      ],
      "stateMutability": "view",
      "type": "function",
      "constant": true
    },
    {
      "inputs": [
        {
          "internalType": "address",
          "name": "",
          "type": "address"
        }
      ],
      "name": "addressInfo",
      "outputs": [
        {
          "internalType": "bool",
          "name": "",
          "type": "bool"
        }
      ],
      "stateMutability": "view",
      "type": "function",
      "constant": true
    },
    {
      "inputs": [],
      "name": "cantidadMinima",
      "outputs": [
        {
          "internalType": "uint256",
          "name": "",
          "type": "uint256"
        }
      ],
      "stateMutability": "view",
      "type": "function",
      "constant": true
    },
    {
      "inputs": [],
      "name": "owner",
      "outputs": [
        {
          "internalType": "address",
          "name": "",
          "type": "address"
        }
      ],
      "stateMutability": "view",
      "type": "function",
      "constant": true
    },
    {
      "inputs": [
        {
          "internalType": "address",
          "name": "",
          "type": "address"
        }
      ],
      "name": "petisionDeRetiro",
      "outputs": [
        {
          "internalType": "uint256",
          "name": "",
          "type": "uint256"
        }
      ],
      "stateMutability": "view",
      "type": "function",
      "constant": true
    },
    {
      "inputs": [],
      "name": "porcentajeSemanal",
      "outputs": [
        {
          "internalType": "uint256",
          "name": "",
          "type": "uint256"
        }
      ],
      "stateMutability": "view",
      "type": "function",
      "constant": true
    },
    {
      "inputs": [],
      "name": "renounceOwnership",
      "outputs": [],
      "stateMutability": "nonpayable",
      "type": "function"
    },
    {
      "inputs": [
        {
          "internalType": "address",
          "name": "newOwner",
          "type": "address"
        }
      ],
      "name": "transferOwnership",
      "outputs": [],
      "stateMutability": "nonpayable",
      "type": "function"
    },
    {
      "inputs": [
        {
          "internalType": "address",
          "name": "",
          "type": "address"
        }
      ],
      "name": "userInfo",
      "outputs": [
        {
          "internalType": "address",
          "name": "inversor",
          "type": "address"
        },
        {
          "internalType": "uint256",
          "name": "cantidadTotal",
          "type": "uint256"
        }
      ],
      "stateMutability": "view",
      "type": "function",
      "constant": true
    },
    {
      "inputs": [
        {
          "internalType": "uint256",
          "name": "",
          "type": "uint256"
        }
      ],
      "name": "usuarios",
      "outputs": [
        {
          "internalType": "address",
          "name": "",
          "type": "address"
        }
      ],
      "stateMutability": "view",
      "type": "function",
      "constant": true
    },
    {
      "inputs": [
        {
          "internalType": "uint256",
          "name": "",
          "type": "uint256"
        }
      ],
      "name": "usuariosPetisiones",
      "outputs": [
        {
          "internalType": "address",
          "name": "",
          "type": "address"
        }
      ],
      "stateMutability": "view",
      "type": "function",
      "constant": true
    },
    {
      "inputs": [
        {
          "internalType": "uint256",
          "name": "_cantidad",
          "type": "uint256"
        }
      ],
      "name": "envioUSDT",
      "outputs": [],
      "stateMutability": "nonpayable",
      "type": "function"
    },
    {
      "inputs": [
        {
          "internalType": "uint256",
          "name": "_cantidad",
          "type": "uint256"
        }
      ],
      "name": "withdrawAll",
      "outputs": [],
      "stateMutability": "nonpayable",
      "type": "function"
    },
    {
      "inputs": [],
      "name": "sumaTotal",
      "outputs": [],
      "stateMutability": "nonpayable",
      "type": "function"
    },
    {
      "inputs": [
        {
          "internalType": "uint256",
          "name": "_cantidad",
          "type": "uint256"
        }
      ],
      "name": "solicitarRetiro",
      "outputs": [],
      "stateMutability": "nonpayable",
      "type": "function"
    },
    {
      "inputs": [],
      "name": "repartoGananciasNosotros",
      "outputs": [],
      "stateMutability": "nonpayable",
      "type": "function"
    },
    {
      "inputs": [],
      "name": "retiroGananciasCadaUno",
      "outputs": [],
      "stateMutability": "nonpayable",
      "type": "function"
    },
    {
      "inputs": [
        {
          "internalType": "address",
          "name": "_user",
          "type": "address"
        }
      ],
      "name": "returnTot",
      "outputs": [
        {
          "internalType": "uint256",
          "name": "total",
          "type": "uint256"
        }
      ],
      "stateMutability": "view",
      "type": "function",
      "constant": true
    },
    {
      "inputs": [],
      "name": "pendientePago",
      "outputs": [],
      "stateMutability": "nonpayable",
      "type": "function"
    },
    {
      "inputs": [],
      "name": "totalPedidos",
      "outputs": [
        {
          "internalType": "uint256",
          "name": "",
          "type": "uint256"
        }
      ],
      "stateMutability": "view",
      "type": "function",
      "constant": true
    },
    {
      "inputs": [],
      "name": "balanceUSDT",
      "outputs": [
        {
          "internalType": "uint256",
          "name": "",
          "type": "uint256"
        }
      ],
      "stateMutability": "view",
      "type": "function",
      "constant": true
    },
    {
      "inputs": [
        {
          "internalType": "address",
          "name": "_user",
          "type": "address"
        },
        {
          "internalType": "uint256",
          "name": "_cantidad",
          "type": "uint256"
        }
      ],
      "name": "agregarCantidadTotal",
      "outputs": [],
      "stateMutability": "nonpayable",
      "type": "function"
    },
    {
      "inputs": [
        {
          "internalType": "address",
          "name": "_user",
          "type": "address"
        },
        {
          "internalType": "uint256",
          "name": "_cantidad",
          "type": "uint256"
        }
      ],
      "name": "sacarCantidadTotal",
      "outputs": [],
      "stateMutability": "nonpayable",
      "type": "function"
    },
    {
      "inputs": [],
      "name": "cantidadTotalUSDT",
      "outputs": [
        {
          "internalType": "uint256",
          "name": "",
          "type": "uint256"
        }
      ],
      "stateMutability": "view",
      "type": "function",
      "constant": true
    },
    {
      "inputs": [],
      "name": "returnTotal",
      "outputs": [
        {
          "internalType": "uint256",
          "name": "cantidad",
          "type": "uint256"
        }
      ],
      "stateMutability": "view",
      "type": "function",
      "constant": true
    },
    {
      "inputs": [],
      "name": "returnPorcentajeSemanal",
      "outputs": [
        {
          "internalType": "uint256",
          "name": "",
          "type": "uint256"
        }
      ],
      "stateMutability": "view",
      "type": "function",
      "constant": true
    },
    {
      "inputs": [
        {
          "internalType": "uint256",
          "name": "_porcertaje",
          "type": "uint256"
        }
      ],
      "name": "cambiarPorcetajeSemanal",
      "outputs": [],
      "stateMutability": "nonpayable",
      "type": "function"
    },
    {
      "inputs": [],
      "name": "returnminimoUSDT",
      "outputs": [
        {
          "internalType": "uint256",
          "name": "",
          "type": "uint256"
        }
      ],
      "stateMutability": "view",
      "type": "function",
      "constant": true
    },
    {
      "inputs": [
        {
          "internalType": "uint256",
          "name": "_cantidad",
          "type": "uint256"
        }
      ],
      "name": "cambiarMinimoUsdt",
      "outputs": [],
      "stateMutability": "nonpayable",
      "type": "function"
    },
    {
      "inputs": [],
      "name": "returnCantidadUst",
      "outputs": [
        {
          "internalType": "uint256",
          "name": "",
          "type": "uint256"
        }
      ],
      "stateMutability": "view",
      "type": "function",
      "constant": true
    }
  ],
  "bytecode": "0x608060405260c860025560646003553480156200001b57600080fd5b50604051620037513803806200375183398181016040528101906200004191906200018c565b6200006162000055620000a960201b60201c565b620000b160201b60201c565b80600160006101000a81548173ffffffffffffffffffffffffffffffffffffffff021916908373ffffffffffffffffffffffffffffffffffffffff1602179055505062000206565b600033905090565b60008060009054906101000a900473ffffffffffffffffffffffffffffffffffffffff169050816000806101000a81548173ffffffffffffffffffffffffffffffffffffffff021916908373ffffffffffffffffffffffffffffffffffffffff1602179055508173ffffffffffffffffffffffffffffffffffffffff168173ffffffffffffffffffffffffffffffffffffffff167f8be0079c531659141344cd1fd0a4f28419497f9722a3daafe3b4186f6b6457e060405160405180910390a35050565b6000815190506200018681620001ec565b92915050565b6000602082840312156200019f57600080fd5b6000620001af8482850162000175565b91505092915050565b6000620001c582620001cc565b9050919050565b600073ffffffffffffffffffffffffffffffffffffffff82169050919050565b620001f781620001b8565b81146200020357600080fd5b50565b61353b80620002166000396000f3fe608060405234801561001057600080fd5b50600436106101d95760003560e01c80635630126811610104578063958e2d31116100a2578063c54e44eb11610071578063c54e44eb146104e9578063f1eca05414610507578063f2a6118214610523578063f2fde38b1461053f576101d9565b8063958e2d31146104755780639db3354314610491578063a9afce00146104ad578063b60cc453146104cb576101d9565b80636e862ae7116100de5780636e862ae714610425578063715018a61461042f57806376984f8d146104395780638da5cb5b14610457576101d9565b806356301268146103e157806358b9c010146103fd5780635f460b5614610407576101d9565b8063266963bf1161017c5780633f423a7a1161014b5780633f423a7a14610359578063412d8e301461038957806344a952ce146103b957806345efb8f8146103d7576101d9565b8063266963bf146102e35780632a77265d146103015780632cb7a3a01461031f578063381fbedb1461033d576101d9565b80631dc83a6c116101b85780631dc83a6c1461025b5780632126fcb214610265578063244d7bea146102955780632601e77f146102b3576101d9565b8062b6e8dd146101de5780631959a002146101fa578063198713cf1461022b575b600080fd5b6101f860048036038101906101f39190612b60565b61055b565b005b610214600480360381019061020f9190612b37565b61063a565b604051610222929190613013565b60405180910390f35b61024560048036038101906102409190612bc5565b61067e565b6040516102529190612f98565b60405180910390f35b6102636106bd565b005b61027f600480360381019061027a9190612b37565b610885565b60405161028c919061303c565b60405180910390f35b61029d6108a5565b6040516102aa91906131f4565b60405180910390f35b6102cd60048036038101906102c89190612bc5565b61098d565b6040516102da9190612f98565b60405180910390f35b6102eb6109cc565b6040516102f891906131f4565b60405180910390f35b6103096109d6565b60405161031691906131f4565b60405180910390f35b6103276109e0565b60405161033491906131f4565b60405180910390f35b61035760048036038101906103529190612bc5565b610ab2565b005b610373600480360381019061036e9190612b37565b610b38565b60405161038091906131f4565b60405180910390f35b6103a3600480360381019061039e9190612b37565b610b89565b6040516103b091906131f4565b60405180910390f35b6103c1610ba1565b6040516103ce91906131f4565b60405180910390f35b6103df610ba7565b005b6103fb60048036038101906103f69190612b60565b610e52565b005b610405610f31565b005b61040f611545565b60405161041c91906131f4565b60405180910390f35b61042d61154b565b005b6104376117e3565b005b61044161186b565b60405161044e91906131f4565b60405180910390f35b61045f611922565b60405161046c9190612f98565b60405180910390f35b61048f600480360381019061048a9190612bc5565b61194b565b005b6104ab60048036038101906104a69190612bc5565b611bab565b005b6104b56120e0565b6040516104c291906131f4565b60405180910390f35b6104d36120ea565b6040516104e091906131f4565b60405180910390f35b6104f1612170565b6040516104fe9190613057565b60405180910390f35b610521600480360381019061051c9190612bc5565b612196565b005b61053d60048036038101906105389190612bc5565b61221c565b005b61055960048036038101906105549190612b37565b612530565b005b610563612628565b73ffffffffffffffffffffffffffffffffffffffff16610581611922565b73ffffffffffffffffffffffffffffffffffffffff16146105d7576040517f08c379a00000000000000000000000000000000000000000000000000000000081526004016105ce90613194565b60405180910390fd5b6000600860008473ffffffffffffffffffffffffffffffffffffffff1673ffffffffffffffffffffffffffffffffffffffff16815260200190815260200160002090508181600201600082825461062e9190613254565b92505081905550505050565b60086020528060005260406000206000915090508060000160009054906101000a900473ffffffffffffffffffffffffffffffffffffffff16908060020154905082565b6006818154811061068e57600080fd5b906000526020600020016000915054906101000a900473ffffffffffffffffffffffffffffffffffffffff1681565b6106c5612628565b73ffffffffffffffffffffffffffffffffffffffff166106e3611922565b73ffffffffffffffffffffffffffffffffffffffff1614610739576040517f08c379a000000000000000000000000000000000000000000000000000000000815260040161073090613194565b60405180910390fd5b60005b6006805490508110156108825760006008600060068481548110610789577f4e487b7100000000000000000000000000000000000000000000000000000000600052603260045260246000fd5b9060005260206000200160009054906101000a900473ffffffffffffffffffffffffffffffffffffffff1673ffffffffffffffffffffffffffffffffffffffff1673ffffffffffffffffffffffffffffffffffffffff16815260200190815260200160002090506000816002015490506000610803612630565b9050600061081a828461298990919063ffffffff16565b905060006108476127106108396002548561299f90919063ffffffff16565b6129b590919063ffffffff16565b9050600061085e828461298990919063ffffffff16565b9050808660020181905550505050505050808061087a90613408565b91505061073c565b50565b60096020528060005260406000206000915054906101000a900460ff1681565b60008060005b60068054905081101561098557600060086000600684815481106108f8577f4e487b7100000000000000000000000000000000000000000000000000000000600052603260045260246000fd5b9060005260206000200160009054906101000a900473ffffffffffffffffffffffffffffffffffffffff1673ffffffffffffffffffffffffffffffffffffffff1673ffffffffffffffffffffffffffffffffffffffff168152602001908152602001600020905080600201548361096f9190613254565b925050808061097d90613408565b9150506108ab565b508091505090565b6007818154811061099d57600080fd5b906000526020600020016000915054906101000a900473ffffffffffffffffffffffffffffffffffffffff1681565b6000600554905090565b6000600354905090565b600080600860003373ffffffffffffffffffffffffffffffffffffffff1673ffffffffffffffffffffffffffffffffffffffff1681526020019081526020016000209050600080600090505b8260010180549050811015610aa957826001018181548110610a77577f4e487b7100000000000000000000000000000000000000000000000000000000600052603260045260246000fd5b90600052602060002090600302016000015482610a949190613254565b91508080610aa190613408565b915050610a2c565b50809250505090565b610aba612628565b73ffffffffffffffffffffffffffffffffffffffff16610ad8611922565b73ffffffffffffffffffffffffffffffffffffffff1614610b2e576040517f08c379a0000000000000000000000000000000000000000000000000000000008152600401610b2590613194565b60405180910390fd5b8060038190555050565b600080600860008473ffffffffffffffffffffffffffffffffffffffff1673ffffffffffffffffffffffffffffffffffffffff16815260200190815260200160002090508060020154915050919050565b600a6020528060005260406000206000915090505481565b60035481565b610baf612628565b73ffffffffffffffffffffffffffffffffffffffff16610bcd611922565b73ffffffffffffffffffffffffffffffffffffffff1614610c23576040517f08c379a0000000000000000000000000000000000000000000000000000000008152600401610c1a90613194565b60405180910390fd5b60005b600780549050811015610e4f5760006008600060078481548110610c73577f4e487b7100000000000000000000000000000000000000000000000000000000600052603260045260246000fd5b9060005260206000200160009054906101000a900473ffffffffffffffffffffffffffffffffffffffff1673ffffffffffffffffffffffffffffffffffffffff1673ffffffffffffffffffffffffffffffffffffffff16815260200190815260200160002090506000600a600060078581548110610d1a577f4e487b7100000000000000000000000000000000000000000000000000000000600052603260045260246000fd5b9060005260206000200160009054906101000a900473ffffffffffffffffffffffffffffffffffffffff1673ffffffffffffffffffffffffffffffffffffffff1673ffffffffffffffffffffffffffffffffffffffff16815260200190815260200160002054905080826002016000828254610d969190613335565b925050819055507fb5db5c5ea0d3af99e4ba5c31bdd006d4efaeb8bd7c201ec4943b1f476ba9093860078481548110610df8577f4e487b7100000000000000000000000000000000000000000000000000000000600052603260045260246000fd5b9060005260206000200160009054906101000a900473ffffffffffffffffffffffffffffffffffffffff1682604051610e32929190613013565b60405180910390a150508080610e4790613408565b915050610c26565b50565b610e5a612628565b73ffffffffffffffffffffffffffffffffffffffff16610e78611922565b73ffffffffffffffffffffffffffffffffffffffff1614610ece576040517f08c379a0000000000000000000000000000000000000000000000000000000008152600401610ec590613194565b60405180910390fd5b6000600860008473ffffffffffffffffffffffffffffffffffffffff1673ffffffffffffffffffffffffffffffffffffffff168152602001908152602001600020905081816002016000828254610f259190613335565b92505081905550505050565b610f39612628565b73ffffffffffffffffffffffffffffffffffffffff16610f57611922565b73ffffffffffffffffffffffffffffffffffffffff1614610fad576040517f08c379a0000000000000000000000000000000000000000000000000000000008152600401610fa490613194565b60405180910390fd5b60005b600780549050811015611542576000600a600060078481548110610ffd577f4e487b7100000000000000000000000000000000000000000000000000000000600052603260045260246000fd5b9060005260206000200160009054906101000a900473ffffffffffffffffffffffffffffffffffffffff1673ffffffffffffffffffffffffffffffffffffffff1673ffffffffffffffffffffffffffffffffffffffff1681526020019081526020016000205490506000600160009054906101000a900473ffffffffffffffffffffffffffffffffffffffff1673ffffffffffffffffffffffffffffffffffffffff166370a08231306040518263ffffffff1660e01b81526004016110c29190612f98565b60206040518083038186803b1580156110da57600080fd5b505afa1580156110ee573d6000803e3d6000fd5b505050506040513d601f19601f820116820180604052508101906111129190612bee565b9050600454811015611159576040517f08c379a0000000000000000000000000000000000000000000000000000000008152600401611150906130d4565b60405180910390fd5b61116e826004546129cb90919063ffffffff16565b600481905550600082111561138257600160009054906101000a900473ffffffffffffffffffffffffffffffffffffffff1673ffffffffffffffffffffffffffffffffffffffff1663095ea7b330846040518363ffffffff1660e01b81526004016111da929190613013565b602060405180830381600087803b1580156111f457600080fd5b505af1158015611208573d6000803e3d6000fd5b505050506040513d601f19601f8201168201806040525081019061122c9190612b9c565b50600160009054906101000a900473ffffffffffffffffffffffffffffffffffffffff1673ffffffffffffffffffffffffffffffffffffffff166323b872dd30600786815481106112a6577f4e487b7100000000000000000000000000000000000000000000000000000000600052603260045260246000fd5b9060005260206000200160009054906101000a900473ffffffffffffffffffffffffffffffffffffffff16856040518463ffffffff1660e01b81526004016112f093929190612fdc565b602060405180830381600087803b15801561130a57600080fd5b505af115801561131e573d6000803e3d6000fd5b505050506040513d601f19601f820116820180604052508101906113429190612b9c565b611381576040517f08c379a000000000000000000000000000000000000000000000000000000000815260040161137890613114565b60405180910390fd5b5b600a6000600785815481106113c0577f4e487b7100000000000000000000000000000000000000000000000000000000600052603260045260246000fd5b9060005260206000200160009054906101000a900473ffffffffffffffffffffffffffffffffffffffff1673ffffffffffffffffffffffffffffffffffffffff1673ffffffffffffffffffffffffffffffffffffffff1681526020019081526020016000206000905560078381548110611463577f4e487b7100000000000000000000000000000000000000000000000000000000600052603260045260246000fd5b9060005260206000200160006101000a81549073ffffffffffffffffffffffffffffffffffffffff02191690557fb5db5c5ea0d3af99e4ba5c31bdd006d4efaeb8bd7c201ec4943b1f476ba90938600784815481106114eb577f4e487b7100000000000000000000000000000000000000000000000000000000600052603260045260246000fd5b9060005260206000200160009054906101000a900473ffffffffffffffffffffffffffffffffffffffff1683604051611525929190613013565b60405180910390a15050808061153a90613408565b915050610fb0565b50565b60025481565b6000600a60003373ffffffffffffffffffffffffffffffffffffffff1673ffffffffffffffffffffffffffffffffffffffff1681526020019081526020016000205490506115a4816004546129cb90919063ffffffff16565b600481905550600081111561175457600160009054906101000a900473ffffffffffffffffffffffffffffffffffffffff1673ffffffffffffffffffffffffffffffffffffffff1663095ea7b330836040518363ffffffff1660e01b8152600401611610929190613013565b602060405180830381600087803b15801561162a57600080fd5b505af115801561163e573d6000803e3d6000fd5b505050506040513d601f19601f820116820180604052508101906116629190612b9c565b50600160009054906101000a900473ffffffffffffffffffffffffffffffffffffffff1673ffffffffffffffffffffffffffffffffffffffff166323b872dd3033846040518463ffffffff1660e01b81526004016116c293929190612fdc565b602060405180830381600087803b1580156116dc57600080fd5b505af11580156116f0573d6000803e3d6000fd5b505050506040513d601f19601f820116820180604052508101906117149190612b9c565b611753576040517f08c379a000000000000000000000000000000000000000000000000000000000815260040161174a90613114565b60405180910390fd5b5b6000600a60003373ffffffffffffffffffffffffffffffffffffffff1673ffffffffffffffffffffffffffffffffffffffff16815260200190815260200160002081905550600760006117a79190612aa5565b7fb5db5c5ea0d3af99e4ba5c31bdd006d4efaeb8bd7c201ec4943b1f476ba9093833826040516117d8929190613013565b60405180910390a150565b6117eb612628565b73ffffffffffffffffffffffffffffffffffffffff16611809611922565b73ffffffffffffffffffffffffffffffffffffffff161461185f576040517f08c379a000000000000000000000000000000000000000000000000000000000815260040161185690613194565b60405180910390fd5b61186960006129e1565b565b600080600160009054906101000a900473ffffffffffffffffffffffffffffffffffffffff1673ffffffffffffffffffffffffffffffffffffffff166370a08231306040518263ffffffff1660e01b81526004016118c99190612f98565b60206040518083038186803b1580156118e157600080fd5b505afa1580156118f5573d6000803e3d6000fd5b505050506040513d601f19601f820116820180604052508101906119199190612bee565b90508091505090565b60008060009054906101000a900473ffffffffffffffffffffffffffffffffffffffff16905090565b611953612628565b73ffffffffffffffffffffffffffffffffffffffff16611971611922565b73ffffffffffffffffffffffffffffffffffffffff16146119c7576040517f08c379a00000000000000000000000000000000000000000000000000000000081526004016119be90613194565b60405180910390fd5b6000811115611b7157600160009054906101000a900473ffffffffffffffffffffffffffffffffffffffff1673ffffffffffffffffffffffffffffffffffffffff1663095ea7b330836040518363ffffffff1660e01b8152600401611a2d929190613013565b602060405180830381600087803b158015611a4757600080fd5b505af1158015611a5b573d6000803e3d6000fd5b505050506040513d601f19601f82011682018060405250810190611a7f9190612b9c565b50600160009054906101000a900473ffffffffffffffffffffffffffffffffffffffff1673ffffffffffffffffffffffffffffffffffffffff166323b872dd3033846040518463ffffffff1660e01b8152600401611adf93929190612fdc565b602060405180830381600087803b158015611af957600080fd5b505af1158015611b0d573d6000803e3d6000fd5b505050506040513d601f19601f82011682018060405250810190611b319190612b9c565b611b70576040517f08c379a0000000000000000000000000000000000000000000000000000000008152600401611b6790613114565b60405180910390fd5b5b7fbc896d53ff6d2681a92fcd6140e4ca5c83a76cfa87c9d27db26b78f22f24a45781604051611ba091906131f4565b60405180910390a150565b6000600160009054906101000a900473ffffffffffffffffffffffffffffffffffffffff1673ffffffffffffffffffffffffffffffffffffffff166370a08231336040518263ffffffff1660e01b8152600401611c089190612f98565b60206040518083038186803b158015611c2057600080fd5b505afa158015611c34573d6000803e3d6000fd5b505050506040513d601f19601f82011682018060405250810190611c589190612bee565b905081811015611c9d576040517f08c379a0000000000000000000000000000000000000000000000000000000008152600401611c94906130f4565b60405180910390fd5b600354821015611ce2576040517f08c379a0000000000000000000000000000000000000000000000000000000008152600401611cd9906131d4565b60405180910390fd5b6000600160009054906101000a900473ffffffffffffffffffffffffffffffffffffffff1673ffffffffffffffffffffffffffffffffffffffff1663dd62ed3e33306040518363ffffffff1660e01b8152600401611d41929190612fb3565b60206040518083038186803b158015611d5957600080fd5b505afa158015611d6d573d6000803e3d6000fd5b505050506040513d601f19601f82011682018060405250810190611d919190612bee565b905060008311611dd6576040517f08c379a0000000000000000000000000000000000000000000000000000000008152600401611dcd90613134565b60405180910390fd5b82811015611e19576040517f08c379a0000000000000000000000000000000000000000000000000000000008152600401611e1090613154565b60405180910390fd5b6000600860003373ffffffffffffffffffffffffffffffffffffffff1673ffffffffffffffffffffffffffffffffffffffff16815260200190815260200160002090506000841115611f2057600160009054906101000a900473ffffffffffffffffffffffffffffffffffffffff1673ffffffffffffffffffffffffffffffffffffffff166323b872dd3330876040518463ffffffff1660e01b8152600401611ec493929190612fdc565b602060405180830381600087803b158015611ede57600080fd5b505af1158015611ef2573d6000803e3d6000fd5b505050506040513d601f19601f82011682018060405250810190611f169190612b9c565b611f1f57600080fd5b5b338160000160006101000a81548173ffffffffffffffffffffffffffffffffffffffff021916908373ffffffffffffffffffffffffffffffffffffffff16021790555080600101604051806060016040528086815260200142815260200186815250908060018154018082558091505060019003906000526020600020906003020160009091909190915060008201518160000155602082015181600101556040820151816002015550506006339080600181540180825580915050600190039060005260206000200160009091909190916101000a81548173ffffffffffffffffffffffffffffffffffffffff021916908373ffffffffffffffffffffffffffffffffffffffff1602179055506001600960003373ffffffffffffffffffffffffffffffffffffffff1673ffffffffffffffffffffffffffffffffffffffff16815260200190815260200160002060006101000a81548160ff0219169083151502179055507fde4c0c9667ceaa9ff7a08b1f35e9dbc06c69ec3c1d99789d9ea1925e0d827a2533856040516120b7929190613013565b60405180910390a16120d48460055461298990919063ffffffff16565b60058190555050505050565b6000600254905090565b60006120f4612628565b73ffffffffffffffffffffffffffffffffffffffff16612112611922565b73ffffffffffffffffffffffffffffffffffffffff1614612168576040517f08c379a000000000000000000000000000000000000000000000000000000000815260040161215f90613194565b60405180910390fd5b600454905090565b600160009054906101000a900473ffffffffffffffffffffffffffffffffffffffff1681565b61219e612628565b73ffffffffffffffffffffffffffffffffffffffff166121bc611922565b73ffffffffffffffffffffffffffffffffffffffff1614612212576040517f08c379a000000000000000000000000000000000000000000000000000000000815260040161220990613194565b60405180910390fd5b8060028190555050565b6000600860003373ffffffffffffffffffffffffffffffffffffffff1673ffffffffffffffffffffffffffffffffffffffff16815260200190815260200160002090506000600160009054906101000a900473ffffffffffffffffffffffffffffffffffffffff1673ffffffffffffffffffffffffffffffffffffffff166370a08231306040518263ffffffff1660e01b81526004016122bc9190612f98565b60206040518083038186803b1580156122d457600080fd5b505afa1580156122e8573d6000803e3d6000fd5b505050506040513d601f19601f8201168201806040525081019061230c9190612bee565b905080831115612351576040517f08c379a000000000000000000000000000000000000000000000000000000000815260040161234890613094565b60405180910390fd5b8160020154831115612398576040517f08c379a000000000000000000000000000000000000000000000000000000000815260040161238f90613174565b60405180910390fd5b82600a60003373ffffffffffffffffffffffffffffffffffffffff1673ffffffffffffffffffffffffffffffffffffffff16815260200190815260200160002060008282546123e79190613254565b925050819055508160020154600a60003373ffffffffffffffffffffffffffffffffffffffff1673ffffffffffffffffffffffffffffffffffffffff168152602001908152602001600020541115612474576040517f08c379a000000000000000000000000000000000000000000000000000000000815260040161246b906131b4565b60405180910390fd5b6007339080600181540180825580915050600190039060005260206000200160009091909190916101000a81548173ffffffffffffffffffffffffffffffffffffffff021916908373ffffffffffffffffffffffffffffffffffffffff1602179055506124ec8360045461298990919063ffffffff16565b6004819055507f19b2b2b17b8c202b0cde8249937f0b0c1c633d3815a787d4c25a70cda2281c6d833360405161252392919061320f565b60405180910390a1505050565b612538612628565b73ffffffffffffffffffffffffffffffffffffffff16612556611922565b73ffffffffffffffffffffffffffffffffffffffff16146125ac576040517f08c379a00000000000000000000000000000000000000000000000000000000081526004016125a390613194565b60405180910390fd5b600073ffffffffffffffffffffffffffffffffffffffff168173ffffffffffffffffffffffffffffffffffffffff16141561261c576040517f08c379a0000000000000000000000000000000000000000000000000000000008152600401612613906130b4565b60405180910390fd5b612625816129e1565b50565b600033905090565b60008060005b6006805490508110156129815760006008600060068481548110612683577f4e487b7100000000000000000000000000000000000000000000000000000000600052603260045260246000fd5b9060005260206000200160009054906101000a900473ffffffffffffffffffffffffffffffffffffffff1673ffffffffffffffffffffffffffffffffffffffff1673ffffffffffffffffffffffffffffffffffffffff168152602001908152602001600020905060005b816001018054905081101561296c57600082600101828154811061273a577f4e487b7100000000000000000000000000000000000000000000000000000000600052603260045260246000fd5b9060005260206000209060030201600101549050600061276382426129cb90919063ffffffff16565b9050600a8110156127e55760006040518060400160405280600c81526020017f6e6f20636f62726173737373000000000000000000000000000000000000000081525090507faaac37b5ee3c63fe9c4285908225a6dcb945af3240b6137e8fba3fdc6ad61d06816040516127d79190613072565b60405180910390a150612957565b6000846001018481548110612823577f4e487b7100000000000000000000000000000000000000000000000000000000600052603260045260246000fd5b9060005260206000209060030201600001549050846001018481548110612873577f4e487b7100000000000000000000000000000000000000000000000000000000600052603260045260246000fd5b906000526020600020906003020160000154876128909190613254565b96508685600201819055507f6491d495ca3ff9f3f6b0b87ee93013d1e687980af0f9339155467413d2888798818660000160009054906101000a900473ffffffffffffffffffffffffffffffffffffffff166040516128f092919061320f565b60405180910390a1600a82111561295557600085600101858154811061293f577f4e487b7100000000000000000000000000000000000000000000000000000000600052603260045260246000fd5b9060005260206000209060030201600001819055505b505b5050808061296490613408565b9150506126ed565b5050808061297990613408565b915050612636565b508091505090565b600081836129979190613254565b905092915050565b600081836129ad91906132db565b905092915050565b600081836129c391906132aa565b905092915050565b600081836129d99190613335565b905092915050565b60008060009054906101000a900473ffffffffffffffffffffffffffffffffffffffff169050816000806101000a81548173ffffffffffffffffffffffffffffffffffffffff021916908373ffffffffffffffffffffffffffffffffffffffff1602179055508173ffffffffffffffffffffffffffffffffffffffff168173ffffffffffffffffffffffffffffffffffffffff167f8be0079c531659141344cd1fd0a4f28419497f9722a3daafe3b4186f6b6457e060405160405180910390a35050565b5080546000825590600052602060002090810190612ac39190612ac6565b50565b5b80821115612adf576000816000905550600101612ac7565b5090565b600081359050612af2816134c0565b92915050565b600081519050612b07816134d7565b92915050565b600081359050612b1c816134ee565b92915050565b600081519050612b31816134ee565b92915050565b600060208284031215612b4957600080fd5b6000612b5784828501612ae3565b91505092915050565b60008060408385031215612b7357600080fd5b6000612b8185828601612ae3565b9250506020612b9285828601612b0d565b9150509250929050565b600060208284031215612bae57600080fd5b6000612bbc84828501612af8565b91505092915050565b600060208284031215612bd757600080fd5b6000612be584828501612b0d565b91505092915050565b600060208284031215612c0057600080fd5b6000612c0e84828501612b22565b91505092915050565b612c2081613369565b82525050565b612c2f8161337b565b82525050565b612c3e816133b1565b82525050565b6000612c4f82613238565b612c598185613243565b9350612c698185602086016133d5565b612c72816134af565b840191505092915050565b6000612c8a601683613243565b91507f6e6f2068617920737566696369656e74652075736474000000000000000000006000830152602082019050919050565b6000612cca602683613243565b91507f4f776e61626c653a206e6577206f776e657220697320746865207a65726f206160008301527f64647265737300000000000000000000000000000000000000000000000000006020830152604082019050919050565b6000612d30600d83613243565b91507f66616c74616e20757364747373000000000000000000000000000000000000006000830152602082019050919050565b6000612d70601a83613243565b91507f6e6f207469656e657320737566696369656e74657320757364740000000000006000830152602082019050919050565b6000612db0600683613243565b91507f44415344415300000000000000000000000000000000000000000000000000006000830152602082019050919050565b6000612df0602583613243565b91507f596f75206e65656420746f2073656c6c206174206c6561737420736f6d65207460008301527f6f6b656e730000000000000000000000000000000000000000000000000000006020830152604082019050919050565b6000612e56601983613243565b91507f436865636b2074686520746f6b656e20616c6c6f77616e6365000000000000006000830152602082019050919050565b6000612e96601383613243565b91507f6e6f2074656e65732074616e746f2075736474000000000000000000000000006000830152602082019050919050565b6000612ed6602083613243565b91507f4f776e61626c653a2063616c6c6572206973206e6f7420746865206f776e65726000830152602082019050919050565b6000612f16600d83613243565b91507f6e6f206861792074616e746f6f000000000000000000000000000000000000006000830152602082019050919050565b6000612f56600e83613243565b91507f706f6e6572206d617320757364740000000000000000000000000000000000006000830152602082019050919050565b612f92816133a7565b82525050565b6000602082019050612fad6000830184612c17565b92915050565b6000604082019050612fc86000830185612c17565b612fd56020830184612c17565b9392505050565b6000606082019050612ff16000830186612c17565b612ffe6020830185612c17565b61300b6040830184612f89565b949350505050565b60006040820190506130286000830185612c17565b6130356020830184612f89565b9392505050565b60006020820190506130516000830184612c26565b92915050565b600060208201905061306c6000830184612c35565b92915050565b6000602082019050818103600083015261308c8184612c44565b905092915050565b600060208201905081810360008301526130ad81612c7d565b9050919050565b600060208201905081810360008301526130cd81612cbd565b9050919050565b600060208201905081810360008301526130ed81612d23565b9050919050565b6000602082019050818103600083015261310d81612d63565b9050919050565b6000602082019050818103600083015261312d81612da3565b9050919050565b6000602082019050818103600083015261314d81612de3565b9050919050565b6000602082019050818103600083015261316d81612e49565b9050919050565b6000602082019050818103600083015261318d81612e89565b9050919050565b600060208201905081810360008301526131ad81612ec9565b9050919050565b600060208201905081810360008301526131cd81612f09565b9050919050565b600060208201905081810360008301526131ed81612f49565b9050919050565b60006020820190506132096000830184612f89565b92915050565b60006040820190506132246000830185612f89565b6132316020830184612c17565b9392505050565b600081519050919050565b600082825260208201905092915050565b600061325f826133a7565b915061326a836133a7565b9250827fffffffffffffffffffffffffffffffffffffffffffffffffffffffffffffffff0382111561329f5761329e613451565b5b828201905092915050565b60006132b5826133a7565b91506132c0836133a7565b9250826132d0576132cf613480565b5b828204905092915050565b60006132e6826133a7565b91506132f1836133a7565b9250817fffffffffffffffffffffffffffffffffffffffffffffffffffffffffffffffff048311821515161561332a57613329613451565b5b828202905092915050565b6000613340826133a7565b915061334b836133a7565b92508282101561335e5761335d613451565b5b828203905092915050565b600061337482613387565b9050919050565b60008115159050919050565b600073ffffffffffffffffffffffffffffffffffffffff82169050919050565b6000819050919050565b60006133bc826133c3565b9050919050565b60006133ce82613387565b9050919050565b60005b838110156133f35780820151818401526020810190506133d8565b83811115613402576000848401525b50505050565b6000613413826133a7565b91507fffffffffffffffffffffffffffffffffffffffffffffffffffffffffffffffff82141561344657613445613451565b5b600182019050919050565b7f4e487b7100000000000000000000000000000000000000000000000000000000600052601160045260246000fd5b7f4e487b7100000000000000000000000000000000000000000000000000000000600052601260045260246000fd5b6000601f19601f8301169050919050565b6134c981613369565b81146134d457600080fd5b50565b6134e08161337b565b81146134eb57600080fd5b50565b6134f7816133a7565b811461350257600080fd5b5056fea264697066735822122049490672d1eab49422f5a330debce7529efded98efc5e12fdedfdbbbe989853a64736f6c63430008000033",
  "immutableReferences": {},
  "source": "// SPDX-License-Identifier: MIT\r\n\r\npragma solidity >=0.4.22 <0.9.0;\r\npragma experimental ABIEncoderV2;\r\n\r\nimport \"@openzeppelin/contracts/token/ERC20/IERC20.sol\";\r\nimport \"@openzeppelin/contracts/access/Ownable.sol\";\r\nimport \"@openzeppelin/contracts/utils/math/SafeMath.sol\";\r\n\r\n\r\n\r\ncontract Staking is Ownable {\r\n    using SafeMath for uint256;\r\n\r\n    IERC20 public USDT;\r\n\r\n    uint public porcentajeSemanal = 200;\r\n    uint public cantidadMinima = 100;\r\n\r\n    uint256 totalSolicitado;\r\n    uint256 totalStakeado;\r\n    address [] public usuarios;\r\n    address [] public usuariosPetisiones;\r\n\r\n    struct Plan{\r\n        uint256 cantidadInvertida;\r\n        uint256 fechaDeEntrada;\r\n        uint256 inversion;\r\n    }\r\n\r\n    struct UserInfo {\r\n        address inversor;\r\n        Plan[] plans;\r\n        uint cantidadTotal;\r\n    }\r\n\r\n\r\n\r\n    mapping (address => UserInfo ) public userInfo;\r\n    mapping (address => bool) public addressInfo;\r\n    mapping (address => uint256) public petisionDeRetiro;\r\n    \r\n\r\n    event envioUSD(address inversor, uint256 cantidadInvertida);\r\n    event totalCobrarSemanal(uint cantidad, address inversor);\r\n    event retirarPlataInicial(uint);\r\n    event retiroParcial (address, uint);\r\n    event retiro(uint256);\r\n    event noCobras (string);\r\n    event solcictudRetiro(uint, address);\r\n\r\n\r\n    constructor(address _usdt){\r\n        USDT = IERC20 (_usdt);\r\n    }\r\n  \r\n\r\n//------------------- envios y retiros ---------------------//\r\n\r\n\r\n//ENVIO USDT AL CONTRATO (ESTA ES LA QUE VA) FUNCION NOTOCARRRRRRRRRRR!!!!!!!!!!!!!!!!!!!!!\r\n\r\n    function envioUSDT(uint256 _cantidad) public   {\r\n        uint256 balance = IERC20(USDT).balanceOf(msg.sender);\r\n        require(balance >= _cantidad, \"no tienes suficientes usdt\");\r\n        require(_cantidad >= cantidadMinima, \"poner mas usdt\");\r\n        uint256 allowance = IERC20(USDT).allowance(msg.sender, address(this));\r\n        require(_cantidad > 0, \"You need to sell at least some tokens\");\r\n        require(allowance >= _cantidad, \"Check the token allowance\");\r\n        UserInfo storage user = userInfo[msg.sender];\r\n        if (_cantidad > 0){\r\n            require(IERC20(USDT).transferFrom(msg.sender, address(this), _cantidad));\r\n        }         \r\n                    user.inversor = msg.sender;\r\n                    user.plans.push(Plan(_cantidad, block.timestamp, _cantidad));\r\n                 \r\n\r\n                    usuarios.push(msg.sender);\r\n                    addressInfo[msg.sender] = true;\r\n         \r\n\r\n                emit envioUSD( msg.sender, _cantidad);\r\n            \r\n        totalStakeado = totalStakeado.add(_cantidad);\r\n\r\n    }\r\n\r\n\r\n\r\n\r\n\r\n\r\n//SACAR USDT DEL CONTRATO (ESTA ES LA QUE VA) NO TOCARRRRRRRRRRRRRRRRRRRRRRRRRRR!!!!!!!\r\n    function withdrawAll(uint256 _cantidad) external  onlyOwner {\r\n            if(_cantidad > 0){\r\n               IERC20(USDT).approve(address(this),_cantidad);\r\n               require(IERC20(USDT).transferFrom(address(this), msg.sender, _cantidad),\"DASDAS\");\r\n            }\r\n        emit retiro(_cantidad);\r\n    } \r\n/*\r\n//SUMAR GANANCIAS (ESTA ES LA QUE VA) FUNCIONAA // CARGAA EL % DIARIO A CADA PAGO!!!\r\n    function sumarGanancias() public onlyOwner{\r\n        UserInfo storage user = userInfo[msg.sender]; \r\n    \r\n        for(uint i = 0; i < user.plans.length; i++) {\r\n          uint256 timeTamp = user.plans[i].fechaDeEntrada;\r\n          uint256 timeInicial = block.timestamp.sub(timeTamp);\r\n          if(timeInicial < 10 seconds) {\r\n                string memory nocobras= \"no cobrassss\";\r\n                emit noCobras ( nocobras);\r\n           }else{      \r\n                uint256 cantidadCobrar = user.plans[i].cantidadInvertida.mul(porcentajeSemanal).div(10000); \r\n                uint totalFinal = user.plans[i].cantidadInvertida.add(cantidadCobrar);\r\n                user.plans[i].cantidadInvertida = totalFinal;\r\n\r\n                user.cantidadTotal = returnTotal() ;\r\n               \r\n                emit totalCobrarSemanal(totalFinal, user.inversor);  \r\n          }     \r\n        }\r\n    }\r\n*/\r\n\r\n/// SUMA TODO EN EL PRIMER PAGO Y ELIMINA LOS OTROS---- SI LE CARGAS OTRO PAGO SE LE SUMA DIRECTAMENTE. NO ESEPRA LAS HORAS\r\n    function _sumarGanancias2() private returns(uint256 total){\r\n    uint256 cantidadCobrarTotal ;\r\n    for(uint j = 0 ; j < usuarios.length; j++){\r\n        UserInfo storage user = userInfo[usuarios[j]]; \r\n\r\n        for(uint i = 0; i < user.plans.length; i++) {\r\n          \r\n          uint256 timeTamp = user.plans[i].fechaDeEntrada;\r\n          uint256 timeInicial = block.timestamp.sub(timeTamp);\r\n          if(timeInicial < 10 seconds) {\r\n                string memory nocobras= \"no cobrassss\";\r\n                emit noCobras ( nocobras);\r\n           }else{    \r\n               uint256 cantidadCobrar = user.plans[i].cantidadInvertida; \r\n            //   uint totalFinal = user.plans[i].cantidadInvertida.add(cantidadCobrar);\r\n                cantidadCobrarTotal += user.plans[i].cantidadInvertida ;\r\n\r\n                user.cantidadTotal = cantidadCobrarTotal ;\r\n\r\n                emit totalCobrarSemanal(cantidadCobrar, user.inversor);  \r\n\r\n               \r\n              \r\n\r\n                if( timeInicial > 10 seconds)  {\r\n                    user.plans[i].cantidadInvertida = 0;\r\n                }\r\n\r\n\r\n            }    \r\n\r\n        }\r\n    \r\n    }\r\n        return cantidadCobrarTotal;\r\n\r\n    }\r\n\r\n    function sumaTotal() public onlyOwner {\r\n        \r\n    \r\n        for(uint j = 0 ; j < usuarios.length; j++){\r\n         UserInfo storage user = userInfo[usuarios[j]]; \r\n       \r\n        uint256 total = user.cantidadTotal;\r\n        uint256 totalfianl = _sumarGanancias2();\r\n\r\n        uint sumaYTotal = total.add(totalfianl);\r\n        uint totalCobrar = sumaYTotal.mul(porcentajeSemanal).div(10000);\r\n        uint totalFinal = sumaYTotal.add(totalCobrar);\r\n            \r\n        user.cantidadTotal = totalFinal;\r\n        }\r\n\r\n    }\r\n\r\n\r\n//SOLICITUD DE RETIRO (ESTA ES LA QUE VA) FUNCIONA \r\n    function solicitarRetiro(uint256 _cantidad) public {\r\n        UserInfo storage user = userInfo[msg.sender]; \r\n\r\n        uint256 balance = IERC20(USDT).balanceOf(address(this));\r\n        require(_cantidad <= balance, \"no hay suficiente usdt\");\r\n        require(_cantidad <= user.cantidadTotal, \"no tenes tanto usdt\" );\r\n        petisionDeRetiro[msg.sender] += _cantidad;\r\n       // require(petisionDeRetiro[msg.sender] <= cantidadCobrar,\"no tens tanto\");\r\n        require(petisionDeRetiro[msg.sender] <= user.cantidadTotal, \"no hay tantoo\");\r\n   \r\n\r\n        usuariosPetisiones.push(msg.sender);\r\n        totalSolicitado = totalSolicitado.add(_cantidad);\r\n\r\n        emit solcictudRetiro (_cantidad, msg.sender);  \r\n    }\r\n\r\n\r\n//REPARTO DE GANANCIAS (ESTA ES LA QUE VA) FUNCIONA NO TOCARR!!!!!!!!!!!!!!!!!!!!!!!!!!!!!\r\n    function repartoGananciasNosotros() public onlyOwner{\r\n      for(uint i = 0; i <usuariosPetisiones.length; i++ ){\r\n           uint256 cantidadCobrar = petisionDeRetiro[usuariosPetisiones[i]];\r\n           uint256 balance = IERC20(USDT).balanceOf(address(this));\r\n           require(balance >= totalSolicitado, \"faltan usdtss\");\r\n            totalSolicitado=totalSolicitado.sub(cantidadCobrar);\r\n            if(cantidadCobrar > 0){   \r\n                IERC20(USDT).approve(address(this),cantidadCobrar);\r\n                require(IERC20(USDT).transferFrom(address(this), usuariosPetisiones[i], cantidadCobrar),\"DASDAS\");   \r\n            }       \r\n         //   petisionDeRetiro[usuariosPetisiones[i]] -= cantidadCobrar;  \r\n\r\n            delete petisionDeRetiro[usuariosPetisiones[i]];\r\n             //  UserInfo storage user = userInfo[usuariosPetisiones[i]]; \r\n              //  user.cantidadTotal -= cantidadCobrar; \r\n                delete usuariosPetisiones[i];\r\n\r\n            emit retiroParcial(usuariosPetisiones[i],cantidadCobrar );\r\n        }\r\n    }\r\n\r\n//RETIRO DE GANANCIAS PAGANDO EL GAS ELLOS FUNCIONA NOTOCAAA!!!\r\n    function retiroGananciasCadaUno() public{\r\n     \r\n           uint256 cantidadCobrar = petisionDeRetiro[msg.sender];\r\n            totalSolicitado=totalSolicitado.sub(cantidadCobrar);\r\n            if(cantidadCobrar > 0){   \r\n                IERC20(USDT).approve(address(this),cantidadCobrar);\r\n                require(IERC20(USDT).transferFrom(address(this), msg.sender, cantidadCobrar),\"DASDAS\");   \r\n            } \r\n            petisionDeRetiro[msg.sender] = 0; \r\n\r\n            delete usuariosPetisiones;\r\n\r\n            emit retiroParcial(msg.sender,cantidadCobrar );\r\n        \r\n    }\r\n\r\nfunction returnTot(address _user) public view returns(uint total){\r\n     UserInfo storage user = userInfo[_user]; \r\n\r\n    return user.cantidadTotal;\r\n\r\n   \r\n}\r\n\r\n//FUNCION PENDIENTE DE PAGO NO FUNCIONA!!! NOTOCARRRRRRRR!!!!\r\n  function pendientePago() public onlyOwner{\r\n      for(uint i = 0; i <usuariosPetisiones.length; i++ ){\r\n           UserInfo storage user = userInfo[usuariosPetisiones[i]]; \r\n           uint256 cantidadCobrar = petisionDeRetiro[usuariosPetisiones[i]];      \r\n            user.cantidadTotal -= cantidadCobrar; \r\n            emit retiroParcial(usuariosPetisiones[i],cantidadCobrar );\r\n        }\r\n    }\r\n\r\n//CUANTOS USDT SE SOLICITARON\r\n    function totalPedidos() public view onlyOwner returns(uint256){\r\n        return totalSolicitado;\r\n    }\r\n\r\n\r\n//BALANCE USDT\r\n    function balanceUSDT() public view returns(uint256){\r\n        uint256 balance = IERC20(USDT).balanceOf(address(this));\r\n        return balance;\r\n    }   \r\n\r\n//AGREGAR CANTIDAD TOTAL\r\n    function agregarCantidadTotal(address _user, uint256 _cantidad) public onlyOwner{\r\n        UserInfo storage user = userInfo[_user];\r\n\r\n        user.cantidadTotal += _cantidad; \r\n    }\r\n//SACAR CANTIDAD TOTAL\r\n    function sacarCantidadTotal(address _user, uint256 _cantidad) public onlyOwner{\r\n        UserInfo storage user = userInfo[_user];\r\n        user.cantidadTotal -= _cantidad; \r\n    }\r\n\r\n\r\n    function cantidadTotalUSDT() public view returns(uint256){\r\n        uint256 cantidadTotalusd;\r\n        for(uint i = 0; i < usuarios.length; i++) {\r\n             UserInfo storage user = userInfo[usuarios[i]]; \r\n            cantidadTotalusd += user.cantidadTotal;\r\n        }\r\n        return cantidadTotalusd;\r\n\r\n    }\r\n\r\n\r\n //------------------ retornos y cambios de variables -------------------//   \r\n    function returnTotal()public view returns(uint256 cantidad){\r\n      UserInfo storage user = userInfo[msg.sender]; \r\n      uint256 cantidadCobrar;\r\n      for(uint i = 0; i < user.plans.length; i++) {  \r\n         cantidadCobrar += user.plans[i].cantidadInvertida;\r\n      }\r\n       return cantidadCobrar;\r\n    }\r\n\r\n    function returnPorcentajeSemanal()public view returns(uint){\r\n        return porcentajeSemanal;\r\n    }\r\n\r\n    function cambiarPorcetajeSemanal(uint _porcertaje) public onlyOwner{\r\n        porcentajeSemanal = _porcertaje;\r\n    }\r\n\r\n    function returnminimoUSDT()public view returns(uint){\r\n        return cantidadMinima;\r\n    }\r\n\r\n    function cambiarMinimoUsdt(uint _cantidad) public onlyOwner{\r\n        cantidadMinima = _cantidad;\r\n    }\r\n\r\n    function returnCantidadUst()public view returns(uint){\r\n        return totalStakeado;\r\n    }\r\n\r\n\r\n}",
  "sourcePath": "C:\\Users\\Hp Omen\\Desktop\\repositorio\\Staking\\contracts\\Staking.sol",
  "compiler": {
    "name": "solc",
    "version": "0.8.0+commit.c7dfd78e.Emscripten.clang"
  },
  "schemaVersion": "3.4.3",
  "updatedAt": "2022-06-07T21:32:30.630Z",
  "networkType": "ethereum",
  "devdoc": {
    "kind": "dev",
    "methods": {
      "owner()": {
        "details": "Returns the address of the current owner."
      },
      "renounceOwnership()": {
        "details": "Leaves the contract without owner. It will not be possible to call `onlyOwner` functions anymore. Can only be called by the current owner. NOTE: Renouncing ownership will leave the contract without an owner, thereby removing any functionality that is only available to the owner."
      },
      "transferOwnership(address)": {
        "details": "Transfers ownership of the contract to a new account (`newOwner`). Can only be called by the current owner."
      }
    },
    "version": 1
  },
  "userdoc": {
    "kind": "user",
    "methods": {},
    "version": 1
  }
}